{
  "contractName": "DecentralizedWebHosting",
  "abi": [
    {
      "anonymous": false,
      "inputs": [
        {
          "indexed": true,
          "internalType": "address",
          "name": "owner",
          "type": "address"
        },
        {
          "indexed": false,
          "internalType": "string",
          "name": "domain",
          "type": "string"
        },
        {
          "indexed": false,
          "internalType": "string",
          "name": "contentAddress",
          "type": "string"
        },
        {
          "indexed": false,
          "internalType": "string",
          "name": "webtype",
          "type": "string"
        }
      ],
      "name": "WebsiteRegistered",
      "type": "event"
    },
    {
      "inputs": [
        {
          "internalType": "string",
          "name": "domain",
          "type": "string"
        },
        {
          "internalType": "string",
          "name": "contentAddress",
          "type": "string"
        },
        {
          "internalType": "string",
          "name": "webtype",
          "type": "string"
        }
      ],
      "name": "registerWebsite",
      "outputs": [],
      "stateMutability": "nonpayable",
      "type": "function"
    },
    {
      "inputs": [
        {
          "internalType": "string",
          "name": "domain",
          "type": "string"
        },
        {
          "internalType": "string",
          "name": "newContentAddress",
          "type": "string"
        },
        {
          "internalType": "string",
          "name": "newWebtype",
          "type": "string"
        }
      ],
      "name": "updateContentAddress",
      "outputs": [],
      "stateMutability": "nonpayable",
      "type": "function"
    },
    {
      "inputs": [
        {
          "internalType": "string",
          "name": "domain",
          "type": "string"
        }
      ],
      "name": "getContentAddress",
      "outputs": [
        {
          "internalType": "string",
          "name": "",
          "type": "string"
        }
      ],
      "stateMutability": "view",
      "type": "function",
      "constant": true
    }
  ],
  "bytecode": "0x608060405234801561001057600080fd5b50610b13806100206000396000f3fe608060405234801561001057600080fd5b50600436106100415760003560e01c806311f2483314610046578063192b628214610062578063ac2d356d14610092575b600080fd5b610060600480360381019061005b919061050b565b6100ae565b005b61007c60048036038101906100779190610583565b61021a565b604051610089919061064b565b60405180910390f35b6100ac60048036038101906100a7919061050b565b6102cd565b005b600080836040516100bf91906106a9565b908152602001604051809103902060010180546100db906106ef565b90501461011d576040517f08c379a00000000000000000000000000000000000000000000000000000000081526004016101149061076c565b60405180910390fd5b60405180604001604052803373ffffffffffffffffffffffffffffffffffffffff1681526020018281525060008360405161015891906106a9565b908152602001604051809103902060008201518160000160006101000a81548173ffffffffffffffffffffffffffffffffffffffff021916908373ffffffffffffffffffffffffffffffffffffffff16021790555060208201518160010190816101c29190610942565b509050503373ffffffffffffffffffffffffffffffffffffffff167f389e0c4ace2b050cdfdfe55c75bcb3a2703f503018b361aba79920860bf70306838360405161020e929190610a14565b60405180910390a25050565b606060008260405161022c91906106a9565b90815260200160405180910390206001018054610248906106ef565b80601f0160208091040260200160405190810160405280929190818152602001828054610274906106ef565b80156102c15780601f10610296576101008083540402835291602001916102c1565b820191906000526020600020905b8154815290600101906020018083116102a457829003601f168201915b50505050509050919050565b816000816040516102de91906106a9565b908152602001604051809103902060000160009054906101000a900473ffffffffffffffffffffffffffffffffffffffff1673ffffffffffffffffffffffffffffffffffffffff163373ffffffffffffffffffffffffffffffffffffffff161461037d576040517f08c379a000000000000000000000000000000000000000000000000000000000815260040161037490610abd565b60405180910390fd5b8160008460405161038e91906106a9565b908152602001604051809103902060010190816103ab9190610942565b50505050565b6000604051905090565b600080fd5b600080fd5b600080fd5b600080fd5b6000601f19601f8301169050919050565b7f4e487b7100000000000000000000000000000000000000000000000000000000600052604160045260246000fd5b610418826103cf565b810181811067ffffffffffffffff82111715610437576104366103e0565b5b80604052505050565b600061044a6103b1565b9050610456828261040f565b919050565b600067ffffffffffffffff821115610476576104756103e0565b5b61047f826103cf565b9050602081019050919050565b82818337600083830152505050565b60006104ae6104a98461045b565b610440565b9050828152602081018484840111156104ca576104c96103ca565b5b6104d584828561048c565b509392505050565b600082601f8301126104f2576104f16103c5565b5b813561050284826020860161049b565b91505092915050565b60008060408385031215610522576105216103bb565b5b600083013567ffffffffffffffff8111156105405761053f6103c0565b5b61054c858286016104dd565b925050602083013567ffffffffffffffff81111561056d5761056c6103c0565b5b610579858286016104dd565b9150509250929050565b600060208284031215610599576105986103bb565b5b600082013567ffffffffffffffff8111156105b7576105b66103c0565b5b6105c3848285016104dd565b91505092915050565b600081519050919050565b600082825260208201905092915050565b60005b838110156106065780820151818401526020810190506105eb565b60008484015250505050565b600061061d826105cc565b61062781856105d7565b93506106378185602086016105e8565b610640816103cf565b840191505092915050565b600060208201905081810360008301526106658184610612565b905092915050565b600081905092915050565b6000610683826105cc565b61068d818561066d565b935061069d8185602086016105e8565b80840191505092915050565b60006106b58284610678565b915081905092915050565b7f4e487b7100000000000000000000000000000000000000000000000000000000600052602260045260246000fd5b6000600282049050600182168061070757607f821691505b60208210810361071a576107196106c0565b5b50919050565b7f446f6d61696e20616c7265616479207265676973746572656400000000000000600082015250565b60006107566019836105d7565b915061076182610720565b602082019050919050565b6000602082019050818103600083015261078581610749565b9050919050565b60008190508160005260206000209050919050565b60006020601f8301049050919050565b600082821b905092915050565b6000600883026107ee7fffffffffffffffffffffffffffffffffffffffffffffffffffffffffffffffff826107b1565b6107f886836107b1565b95508019841693508086168417925050509392505050565b6000819050919050565b6000819050919050565b600061083f61083a61083584610810565b61081a565b610810565b9050919050565b6000819050919050565b61085983610824565b61086d61086582610846565b8484546107be565b825550505050565b600090565b610882610875565b61088d818484610850565b505050565b5b818110156108b1576108a660008261087a565b600181019050610893565b5050565b601f8211156108f6576108c78161078c565b6108d0846107a1565b810160208510156108df578190505b6108f36108eb856107a1565b830182610892565b50505b505050565b600082821c905092915050565b6000610919600019846008026108fb565b1980831691505092915050565b60006109328383610908565b9150826002028217905092915050565b61094b826105cc565b67ffffffffffffffff811115610964576109636103e0565b5b61096e82546106ef565b6109798282856108b5565b600060209050601f8311600181146109ac576000841561099a578287015190505b6109a48582610926565b865550610a0c565b601f1984166109ba8661078c565b60005b828110156109e2578489015182556001820191506020850194506020810190506109bd565b868310156109ff57848901516109fb601f891682610908565b8355505b6001600288020188555050505b505050505050565b60006040820190508181036000830152610a2e8185610612565b90508181036020830152610a428184610612565b90509392505050565b7f4f6e6c7920746865206f776e65722063616e20706572666f726d20746869732060008201527f616374696f6e0000000000000000000000000000000000000000000000000000602082015250565b6000610aa76026836105d7565b9150610ab282610a4b565b604082019050919050565b60006020820190508181036000830152610ad681610a9a565b905091905056fea26469706673582212208e3e0930f190b64abe222081351778188877114912a61c58127fa1523967965d64736f6c63430008150033",
  "immutableReferences": {},
  "source": "//SPDX-License-Identifier: MIT\r\npragma solidity ^0.8.0;\r\n\r\ncontract DecentralizedWebHosting {\r\n    \r\n    struct Website {\r\n        address owner;\r\n        string contentAddress; // IPFS hash or other decentralized storage address\r\n    }\r\n    \r\n    mapping(string => Website) websites; // Domain name to Website mapping\r\n    \r\n    // Event emitted when a new website is registered\r\n    event WebsiteRegistered(address indexed owner, string domain, string contentAddress);\r\n    \r\n    // Modifier: Only the owner of a website can perform certain actions\r\n    modifier onlyOwner(string memory domain) {\r\n        require(msg.sender == websites[domain].owner, \"Only the owner can perform this action\");\r\n        _;\r\n    }\r\n    \r\n    // Register a new website\r\n    function registerWebsite(string memory domain, string memory contentAddress) public {\r\n        require(bytes(websites[domain].contentAddress).length == 0, \"Domain already registered\");\r\n        websites[domain] = Website(msg.sender, contentAddress);\r\n        emit WebsiteRegistered(msg.sender, domain, contentAddress);\r\n    }\r\n    \r\n    // Update the content address of a website\r\n    function updateContentAddress(string memory domain, string memory newContentAddress) public onlyOwner(domain) {\r\n        websites[domain].contentAddress = newContentAddress;\r\n    }\r\n    \r\n    // Get the content address of a website\r\n    function getContentAddress(string memory domain) public view returns (string memory) {\r\n        return websites[domain].contentAddress;\r\n    }\r\n}\r\n",
  "sourcePath": "E:\\web hosting\\contracts\\DecentralizedWebHosting.sol",
  "compiler": {
    "name": "solc",
    "version": "0.8.21+commit.d9974bed.Emscripten.clang"
  },
  "schemaVersion": "3.4.16",
  "updatedAt": "2024-04-17T17:10:32.501Z",
  "networkType": "ethereum",
  "devdoc": {
    "kind": "dev",
    "methods": {},
    "version": 1
  },
  "userdoc": {
    "kind": "user",
    "methods": {},
    "version": 1
  }
}